:100000000C9462000C948A000C948A000C948A0070
:100010000C948A000C948A000C948A000C948A0038
:100020000C948A000C948A000C948A000C948A0028
:100030000C948A000C948A000C948A000C948A0018
:100040000C94D0020C948A000C9440030C941A0374
:100050000C948A000C948A000C948A000C948A00F8
:100060000C948A000C948A000000000024002700F1
:100070002A000000000023002600290000000000E4
:10008000250028002B0004040404040404040202D4
:100090000202020203030303030301020408102007
:1000A0004080010204081020010204081020000012
:1000B0000008000201000003040700000000000027
:1000C0000000DA0411241FBECFEFD8E0DEBFCDBFA1
:1000D00011E0A0E0B1E0E2E6FAE002C005900D9286
:1000E000A237B107D9F722E0A2E7B1E001C01D9223
:1000F000AA31B207E1F710E0C2E6D0E004C02197D0
:10010000FE010E942905C136D107C9F70E9472037A
:100110000C942F050C940000833081F028F481307A
:1001200099F08230A9F008958730A9F08830C9F09D
:100130008430B1F4809180008F7D03C08091800075
:100140008F7780938000089584B58F7784BD08955C
:1001500084B58F7DFBCF8091B0008F778093B00006
:1001600008958091B0008F7DF9CF1F93CF93DF93D7
:10017000EBEBF0E09491E7EAF0E0D491E3E9F0E012
:10018000C491CC23B9F0182F992319F0892F0E941C
:100190008C00EC2FF0E0EE0FFF1FE458FF4FA5910D
:1001A000B4918FB7F894EC91111108C0D095DE236B
:1001B000DC938FBFDF91CF911F910895DE2BF8CF95
:1001C000CF93DF93282F30E0F901E255FF4F849160
:1001D000F901E656FF4FD491F901EA57FF4FC49158
:1001E000CC23A1F081110E948C00EC2FF0E0EE0FE7
:1001F000FF1FEE58FF4FA591B491EC91ED2381E0E4
:1002000090E009F480E0DF91CF91089580E090E0E4
:10021000FACF8E3008F08E508770806480937C0017
:1002200080917A00806480937A0080917A0086FDC4
:10023000FCCF809178009091790008953FB7F894B1
:100240008091790190917A01A0917B01B0917C011C
:1002500026B5A89B05C02F3F19F00196A11DB11D21
:100260003FBFBA2FA92F982F8827BC01CD01620F5D
:10027000711D811D911D42E0660F771F881F991F18
:100280004A95D1F70895AF92BF92CF92DF92EF9245
:10029000FF920F931F93CF93DF936C017B018B0130
:1002A000040F151FEB015E01AE18BF08C017D10780
:1002B00059F06991D601ED91FC910190F081E02D0A
:1002C000C6010995892B79F7C501DF91CF911F915F
:1002D0000F91FF90EF90DF90CF90BF90AF90089577
:1002E000FC01538D448D252F30E0842F90E0821B3C
:1002F000930B541710F0CF96089501970895FC01C1
:10030000918D828D981761F0A28DAE0FBF2FB11D18
:100310005D968C91928D9F5F9F73928F90E0089570
:100320008FEF9FEF0895FC01918D828D981731F02A
:10033000828DE80FF11D858D90E008958FEF9FEF7E
:100340000895FC01918D228D892F90E0805C9F4F54
:10035000821B91098F73992708958DE791E00E9480
:10036000A10121E0892B09F420E0822F089580E08B
:1003700090E0892B29F00E94AD0181110C940000BE
:100380000895FC01A48DA80FB92FB11DA35ABF4F2A
:100390002C91848D90E001968F739927848FA68984
:1003A000B7892C93A089B1898C91837080648C93D8
:1003B000938D848D981306C00288F389E02D808187
:1003C0008F7D80830895EF92FF920F931F93CF93B9
:1003D000DF93EC0181E0888F9B8D8C8D98131AC080
:1003E000E889F989808185FF15C09FB7F894EE8967
:1003F000FF896083E889F9898081837080648083C4
:100400009FBF81E090E0DF91CF911F910F91FF900E
:10041000EF900895F62E0B8D10E00F5F1F4F0F73B6
:100420001127E02E8C8D8E110CC00FB607FCFACF71
:10043000E889F989808185FFF5CFCE010E94C1014D
:10044000F1CFEB8DEC0FFD2FF11DE35AFF4FF08242
:100450009FB7F8940B8FEA89FB8980818062CFCFA8
:10046000CF93DF93EC01888D8823B9F0AA89BB89EB
:10047000E889F9898C9185FD03C0808186FD0DC0D6
:100480000FB607FCF7CF8C9185FFF2CF808185FFF7
:10049000EDCFCE010E94C101E9CFDF91CF91089548
:1004A000FC0101900020E9F73197AF01481B590B7F
:1004B000BC018DE791E00C9443018F929F92AF9223
:1004C000BF920F931F93CF93DF93CDB7DEB7A19762
:1004D0000FB6F894DEBF0FBECDBF19A2423008F4AC
:1004E0004AE08E010F5D1F4F842E912CB12CA12C60
:1004F000A50194010E940705E62FB901CA01EA305F
:10050000F4F4E05DD801EE938D01232B242B252BF1
:1005100079F790E080E0109719F0CD010E94500229
:10052000A1960FB6F894DEBF0FBECDBFDF91CF917D
:100530001F910F91BF90AF909F908F900895E95CAD
:10054000E1CFCF92DF92EF92FF92CF93DF936B01D7
:100550007C016DE28DE791E00E94E301EC016627EA
:100560007727CB016C197D098E099F094AE00E940B
:100570005D028C0F9D1FDF91CF91FF90EF90DF9078
:10058000CF900895CF93DF930E945002EC0183E156
:1005900091E00E9450028C0F9D1FDF91CF91089532
:1005A0001F920F920FB60F9211242F933F938F93A8
:1005B0009F93AF93BF938091750190917601A09125
:1005C0007701B09178013091740123E0230F2D372A
:1005D00058F50196A11DB11D2093740180937501FA
:1005E00090937601A0937701B0937801809179017F
:1005F00090917A01A0917B01B0917C010196A11D9F
:10060000B11D8093790190937A01A0937B01B093FF
:100610007C01BF91AF919F918F913F912F910F904E
:100620000FBE0F901F90189526E8230F0296A11D6C
:10063000B11DD2CF1F920F920FB60F9211242F939C
:100640003F934F935F936F937F938F939F93AF935A
:10065000BF93EF93FF938DE791E00E94C101FF915B
:10066000EF91BF91AF919F918F917F916F915F912A
:100670004F913F912F910F900FBE0F901F901895A3
:100680001F920F920FB60F9211242F938F939F9367
:10069000EF93FF93E0918D01F0918E018081E091C5
:1006A0009301F091940182FD1BC09081809196018D
:1006B0008F5F8F7320919701821741F0E09196012F
:1006C000F0E0E358FE4F958F80939601FF91EF91F4
:1006D0009F918F912F910F900FBE0F901F901895A3
:1006E0008081F4CF789484B5826084BD84B58160C4
:1006F00084BD85B5826085BD85B5816085BD8091ED
:100700006E00816080936E00109281008091810064
:10071000826080938100809181008160809381005C
:10072000809180008160809380008091B10084601E
:100730008093B1008091B00081608093B00080917F
:100740007A00846080937A0080917A00826080933E
:100750007A0080917A00816080937A0080917A009B
:10076000806880937A001092C100E0918D01F09131
:100770008E0182E08083E0918901F0918A011082EC
:10078000E0918B01F0918C018FEC808310929501A8
:10079000E0919101F091920186E08083E0918F01D8
:1007A000F0919001808180618083E0918F01F091D0
:1007B0009001808188608083E0918F01F0919001A9
:1007C000808180688083E0918F01F0919001808129
:1007D0008F7D8083E2EAF0E02491EEE8F0E08491FE
:1007E0008823C1F090E0880F991FFC01E859FF4F62
:1007F000C591D491FC01E458FF4FA591B4919FB7E6
:10080000F8948881E22FE0958E2388838C91E823E9
:10081000EC939FBFE7EAF0E02491E3E9F0E08491F4
:10082000882399F090E0880F991FFC01E859FF4F49
:10083000A591B491FC01E458FF4F859194918FB735
:10084000F894EC91E22BEC938FBF88E00E94E000DB
:100850008C018EE00E940901EC010115110509F0DF
:1008600092C086E191E00E94C20281E00E94B50040
:100870008DE291E00E945002BE010D2E000C880B0B
:10088000990B97FF86C00E94A10283E191E00E942C
:10089000500281E0012B09F480E080930001D093A5
:1008A0007301C093720100E010E088E00E94E00054
:1008B0007C018EE00E940901EC01809100018E15FF
:1008C0001F0489F081E0E114F10409F480E08093D1
:1008D0000001EF2809F061C086E191E00E94C202A8
:1008E00081E00E94B5008091720190917301C81758
:1008F000D907C9F08C179D070CF055C088E491E02A
:100900000E945002BE010D2E000C880B990B97FF20
:100910004DC00E94A10283E191E00E945002D09359
:100920007301C09372010E941E014B015C0184E6B9
:10093000C82ED12CE12CF12C0E941E0168197909D6
:100940008A099B09683E734081059105A8F321E05F
:10095000C21AD108E108F10888EE880E83E0981EDB
:10096000A11CB11CC114D104E104F10429F7011543
:10097000110509F49ACF0E94AD01882309F495CF9F
:100980000E94000092CF82E291E00E94C20280E0C9
:100990006DCF4AE00E945D0278CF82E291E00E9432
:1009A000C20280E09ECF8DE591E0AACF4AE00E948E
:1009B0005D02B1CFEDE7F1E01382128288EE93E0A1
:1009C000A0E0B0E084839583A683B78385E091E0BF
:1009D0009183808385EC90E09587848784EC90E018
:1009E0009787868780EC90E0918B808B81EC90E0FC
:1009F000938B828B82EC90E0958B848B86EC90E0DD
:100A0000978B868B118E128E138E148E0895A1E211
:100A10001A2EAA1BBB1BFD010DC0AA1FBB1FEE1F78
:100A2000FF1FA217B307E407F50720F0A21BB30BC3
:100A3000E40BF50B661F771F881F991F1A9469F73F
:100A400060957095809590959B01AC01BD01CF019B
:100A50000895EE0FFF1F0590F491E02D0994F8948E
:020A6000FFCFC6
:100A62000100000000E301430170013002A1017F97
:100A72000193010D0A00536F6C6F20756D69646FED
:100A82002100536F6C6F207365636F2E004E697681
:100A9200656C20696E696369616C20646520756D9F
:100AA20069646164653A2000556D6964616465201A
:100AB20061756D656E74616E646F3A2000556D6983
:100AC200646164652064696D696E75696E646F3A0C
:020AD200200002
:00000001FF
