:100000000C94DB000C9403010C9403010C94030189
:100010000C9403010C9403010C9403010C94030150
:100020000C9403010C9403010C94D0040C94390536
:100030000C9403010C9403010C9403010C94030130
:100040000C9403010C9403010C9403010C94030120
:100050000C9403010C9403010C9403010C9486048A
:100060000C9403010C9403010C9403010C94030100
:100070000C9403010C9403010C9403010C940301F0
:100080000C9403010C9403010C9403010C940301E0
:100090000C9403010C9403010C9403010C940301D0
:1000A0000C9403010C9403010C940301080B00024F
:1000B0000202000009040000010202000005240001
:1000C0001001052401010104240206052406000193
:1000D0000705810310004009040100020A00000026
:1000E00007050202400000070583024000000403E8
:1000F000090412010002EF0201409A23118000015D
:10010000010203014164616672756974004369729A
:100110006375697420506C617967726F756E6400E5
:1001200000000000240027002A002D0030000706F0
:1001300005040100080A0B0C0D0900000000230053
:10014000260029002C002F000000000025002800B8
:100150002B002E00310004040404040304050202F1
:100160000202040302020202060606060606040450
:1001700002020204040408020110408040102040E2
:10018000804080080204018040201002011080108D
:10019000204040200000000200090F00000304017D
:1001A000000C000000000000000000000000000043
:1001B00000000000D60811241FBECFEFDAE0DEBF3A
:1001C000CDBF11E0A0E0B1E0EAE2F2E102C00590AB
:1001D0000D92A838B107D9F721E0A8E8B1E001C035
:1001E0001D92A93FB207E1F710E0CBEDD0E004C0CB
:1001F0002197FE010E940D09CA3DD107C9F70E944F
:100200007B070C9413090C9400009091A8019111A4
:1002100003C08FEF9FEF08954FB7F89492E090934B
:10022000E9009091F200292F30E01216130614F421
:1002300021E030E0232B29F084E68093A701809110
:10024000F100992339F02091F200211103C02BE62F
:100250002093E8004FBF9923E1F290E008952FB773
:10026000F89483E08093E9009091E800892F8072F0
:1002700095FF04C09091F20080E4891B2FBF089580
:1002800080919F0181110DC082E080939B0184E0E9
:1002900080939C0110929E0110929D0181E08093B9
:1002A0009F018BE991E0089581508F3008F047C09D
:1002B000E82FF0E0E25AFE4F0C940D097B017F011C
:1002C0006D01730177019F019F019F0182018801E8
:1002D0008C01900196019F019A01809180008F7797
:1002E000809380000895809180008F7DF9CF809168
:1002F0008000877FF5CF84B58F7784BD089584B55E
:100300008F7DFBCF809190008F7780939000089530
:10031000809190008F7DF9CF80919000877FF5CFFD
:100320008091C0008F778093C00008958091C000B5
:100330008F7DF9CF8091C200877F8093C20008959E
:100340001F93CF93DF93E1EAF1E09491E2E8F1E0CB
:10035000D491E3E6F1E0C491CC23B9F0182F9923AE
:1003600019F0892F0E945401EC2FF0E0EE0FFF1FCF
:10037000E85BFE4FA591B4918FB7F894EC91111101
:1003800008C0D095DE23DC938FBFDF91CF911F9102
:100390000895DE2BF8CFCF93DF93282F30E0F901BB
:1003A000EC56FE4F8491F901EB58FE4FD491F901C0
:1003B000EA5AFE4FC491CC23A1F081110E9454014E
:1003C000EC2FF0E0EE0FFF1FE65CFE4FA591B4911D
:1003D000EC91ED2381E090E009F480E0DF91CF9192
:1003E000089580E090E0FACF823108F08251E82F42
:1003F000F0E0E25DFE4FE49190917B008E2F880F3C
:10040000880F80729F7D892B80937B00E770E0646A
:10041000E0937C0080917A00806480937A008091E0
:100420007A0086FDFCCF8091780090917900089544
:100430003FB7F8948091970190919801A09199010C
:10044000B0919A0126B5A89B05C02F3F19F00196DF
:10045000A11DB11D3FBFBA2FA92F982F8827BC011E
:10046000CD01620F711D811D911D43E0660F771F45
:10047000881F991F4A95D1F708958F929F92AF9246
:10048000BF92CF92DF92EF92FF924B015C010E94EC
:1004900018026B017C010E9418026C197D098E09FB
:1004A0009F09683E734081059105A8F321E0821AF7
:1004B0009108A108B10888EEC80E83E0D81EE11C9F
:1004C000F11C81149104A104B10429F7FF90EF906D
:1004D000DF90CF90BF90AF909F908F900895409104
:1004E0008A0150918B012091880130918901421736
:1004F0005307B4F49091E8009570E1F39091E8000F
:1005000092FD19C08093F10080918A0190918B0136
:1005100001968F739927892B19F48EEF8093E80049
:1005200080918A0190918B01019690938B01809329
:100530008A0181E0089580E00895EF92FF920F9381
:100540001F93CF93DF93F82E192FE62E042F81E00F
:10055000860F880F0E946F0283E00E946F02CF2DEA
:10056000D12FEC0EFD2EF11CCE15DF05B9F007FFE3
:1005700013C0FE0184910E946F02182F80E00E9438
:100580006F02812321968111EFCFDF91CF911F91CF
:100590000F91FF90EF9008958881EDCF81E0F5CF26
:1005A000DF92EF92FF920F931F93CF93DF93D82E9A
:1005B0008A01EB017B01E40EF51ECE15DF0559F033
:1005C000D7FE12C0FE0184910E946F022196811114
:1005D000F4CF0FEF1FEFC801DF91CF911F910F9163
:1005E000FF90EF90DF9008958881EECF0F931F93D7
:1005F000CF93DF931F92CDB7DEB782E0898342E4C9
:1006000050E06CEA70E080E80E94D0020E94400155
:10061000DC0112960D911C910115110589F0D8018C
:10062000ED91FC910280F381E02DBE016F5F7F4F61
:10063000C801099597FD04C0F80100851185ECCF2C
:1006400089810F90DF91CF911F910F9108958F9223
:100650009F92AF92BF92CF92DF92EF92FF920F9351
:100660001F93CF93DF936C017B018A0180910B0173
:10067000882309F45BC08091A801882309F456C03F
:1006800080918E0180FF05C08091E00082608093A0
:10069000E000E801B12C8AEFA82E93E0892E2AE32E
:1006A000922E209711F4BB20D9F10E942F018111C5
:1006B0000AC0AA94AA20D1F161E070E080E090E045
:1006C0000E943D02EECF8C171D0611F00CF08C2F0E
:1006D0009FB7F8948092E9002091E80025FD02C0C0
:1006E0009FBFDFCF282F30E0C21BD30BF701815013
:1006F00020F041914093F100FACFE20EF31EBB20AF
:1007000021F09092E800B12CEBCF8091E80085FDBC
:10071000E7CF9092E800BB24B394209709F3F3CF7E
:1007200084E680938D01101611063CF081E090E084
:10073000F6019383828310E000E0C801DF91CF913E
:100740001F910F91FF90EF90DF90CF90BF90AF90EF
:100750009F908F900895CF93DF931F92CDB7DEB710
:100760006983DC01ED91FC910280F381E02D41E091
:1007700050E0BE016F5F7F4F09950F90DF91CF91E1
:10078000089583E08093E9008091F200882319F0B6
:100790008AE38093E80008950E942F0190E0089575
:1007A000FC018485958597FD05C02FEF3FEF3587C8
:1007B000248708950C940501CF93DF93EC018C8579
:1007C0009D8597FF04C00E9405019D878C878C85BD
:1007D0009D85DF91CF910895FC018485958597FDD6
:1007E0000BC09FB7F89482E08093E9008091F200FB
:1007F0009FBF90E0019608959FB7F89482E08093A0
:10080000E9008091F2009FBF90E00895FC01019003
:100810000020E9F73197AF01481B590BBC0189EA69
:1008200091E00C9427038F929F92AF92BF920F9307
:100830001F93CF93DF93CDB7DEB7A1970FB6F89490
:10084000DEBF0FBECDBF19A2423008F44AE08E01D0
:100850000F5D1F4F842E912CB12CA12CA50194016A
:100860000E94EB08E62FB901CA01EA30F4F4E05D1A
:10087000D801EE938D01232B242B252B79F790E0C3
:1008800080E0109719F0CD010E940604A1960FB6E2
:10089000F894DEBF0FBECDBFDF91CF911F910F91B6
:1008A000BF90AF909F908F900895E95CE1CFCF9279
:1008B000DF92EF92FF92CF93DF936B017C016DE2A9
:1008C00089EA91E00E94AB03EC0166277727CB0110
:1008D0006C197D098E099F094AE00E9413048C0F50
:1008E0009D1FDF91CF91FF90EF90DF90CF90089503
:1008F000CF93DF930E940604EC0186E291E00E9410
:1009000006048C0F9D1FDF91CF9108951F920F92C7
:100910000FB60F9211242F933F938F939F93AF9312
:10092000BF938091930190919401A0919501B09112
:1009300096013091920126E0230F2D3758F502964B
:10094000A11DB11D20939201809393019093940176
:10095000A0939501B0939601809197019091980191
:10096000A0919901B0919A010196A11DB11D8093AA
:10097000970190939801A0939901B0939A01BF9128
:10098000AF919F918F913F912F910F900FBE0F903C
:100990001F90189529E8230F0396A11DB11DD2CFF2
:1009A0001F920F920FB60F9211248F939F938091F5
:1009B000E1009091E100937F9093E10083FF0FC0ED
:1009C0001092E90091E09093EB001092EC0092E31A
:1009D0009093ED001092A80198E09093F00082FFB0
:1009E0001CC093E09093E9009091F200992319F0D4
:1009F0009AE39093E80090918D01992329F09091CA
:100A00008D01915090938D019091A701992329F028
:100A10009091A70191509093A70184FF18C08091F5
:100A2000E2008E7E81608093E2008091E1008F7E03
:100A30008093E10080918E018E7E806180938E0193
:100A40009F918F910F900FBE0F901F90189580FF70
:100A5000F7CF8091E2008E7E80618093E2008091EA
:100A6000E1008E7E8093E10080918E018E7E816018
:100A7000E5CF1F920F920FB60F921124CF92DF9203
:100A8000EF92FF920F931F932F933F934F935F9398
:100A90006F937F938F939F93AF93BF93EF93FF9346
:100AA000CF93DF93CDB7DEB76C97DEBFCDBF10928B
:100AB000E9008091E80083FF2FC089E0FE01759670
:100AC000EE2EDF2E815029F09091F1009083319627
:100AD000F9CF84E68093A70182EF8093E8008D89A7
:100AE00087FF39C09091E80090FFFCCF982F907657
:100AF00009F033C19E894F89588D2F89F88C911147
:100B000031C0803861F580918F018093F10010929F
:100B1000F1008EEF8093E8006C960FB6F894DEBF7C
:100B20000FBECDBFDF91CF91FF91EF91BF91AF91FC
:100B30009F918F917F916F915F914F913F912F91F5
:100B40001F910F91FF90EF90DF90CF900F900FBE0D
:100B50000F901F9018959EEF9093E800C7CF1092CA
:100B6000F100D5CF913059F48111D3CF41305105E7
:100B700081F680918F018D7F80938F01CACF933052
:100B800049F48111C6CF4130510519F680918F018A
:100B90008260F2CF953041F48091E80080FFFCCF75
:100BA00020682093E300B5CF963009F0A8C00B8DE4
:100BB0001C8D22E01092E90010928B0110928A01A4
:100BC000F2122EC010928901109288010E94F60242
:100BD0001F8299E09983FA8291E09E8390EA988738
:100BE0009AEF998720918A0130918B01275F3F4FBF
:100BF0003C832B838D831092E90010928B0110921D
:100C00008A01109389010093880149E050E0BE01F8
:100C10006F5F7F4F80E00E94D0020E94F60279CF82
:100C200010938901009388010E944001DC01129613
:100C30000D911C910115110509F457C1D801ED91D1
:100C4000FC910480F581E02D6E2D7D2DC801099564
:100C5000009709F045C1F80100851185EBCFF3E05D
:100C6000FF120EC08F89882309F440C0823061F4DE
:100C700040E862E18DE091E00E949D02811149CF40
:100C800081E28093EB0048CF813029F440E868E0AE
:100C900084E091E0F1CF833099F70E944001DC01BC
:100CA0001296ED90FC908E010F5F1F4F6801E114CA
:100CB000F10479F0D701ED91FC910680F781E02DE8
:100CC000B801C7010995080F111DF701E084F184EF
:100CD000EECFD8011C92F60101900020E9F7319780
:100CE000BF016C197D0940E0C601C6CF6EEE70E011
:100CF000FB01449150E080E80E94D0020ACF973077
:100D000009F4BECF983021F481E08093F10001CF47
:100D1000993009F0FECE837009F0B2CFE0E2F1E045
:100D200081E031E096E32191222371F08093E90084
:100D30003093EB00DF0111972C912093EC009093FE
:100D4000ED008F5F873079F78EE78093EA0010928D
:100D5000EA008F898093A801DCCE8B8D9C8D109248
:100D6000E90010928B0110928A019093890180937F
:100D70008801898D81119AC08E899D89913A49F4A3
:100D8000813209F07DCF47E050E064E071E080E01F
:100D9000B3CF913209F074CF833269F48F89988D83
:100DA000B0E0A0E08093000190930101A0930201C4
:100DB000B0930301AECE8032A9F48091E80082FFA7
:100DC000FCCF88E0E4E0F1E0815029F09091F1005F
:100DD00090833196F9CF84E68093A7018BEF8093BF
:100DE000E80097CE823209F094CE8F8980930B0170
:100DF000EEEFFFE7859194918B3F9C4D51F1E0E040
:100E0000F8E08091040190910501A0910601B09154
:100E10000701803B9440A105B105F1F480910B01DD
:100E200080FD1AC0EE3F8AE0F80789F587E797E76B
:100E3000918380838091600080938C0188E19BE0A6
:100E40000FB6F894A895809360000FBE9093600051
:100E500060CEEEEFFAE0D5CF80819181873797475A
:100E600009F057CEA895809160008861809360005A
:100E700080918C0180936000EE3F2AE0F20789F0B8
:100E80008091FE0A9091FF0A9183808342CE8081F7
:100E900091818737980751F29093FF0A8093FE0A59
:100EA000C5CF1092FF0A1092FE0A33CE0E94400175
:100EB000DC0112960D911C910115110509F4E0CE8B
:100EC000D801ED91FC910190F081E02D6E2D7D2DEA
:100ED000C801099581111DCEF80100851185ECCF5F
:100EE000181619060CF415CECBCEF1E0FF12B7CED2
:100EF00062EF70E0FDCE789484B5826084BD84B5E5
:100F0000816084BD85B5826085BD85B5816085BD04
:100F100080916E00816080936E00109281008091BC
:100F20008100826080938100809181008160809344
:100F30008100809180008160809380008091910089
:100F400082608093910080919100816080939100F4
:100F5000809190008160809390008091C1008460B6
:100F60008093C1008091C10082608093C100809114
:100F7000C10081608093C1008091C3008160809333
:100F8000C3008091C00082608093C0008091C20045
:100F900081608093C20080917A00846080937A009F
:100FA00080917A00826080937A0080917A008E7FAF
:100FB00080937A0080917A00806880937A00109202
:100FC000A80110928F0110928E018091D70081604C
:100FD0008093D70080EA8093D80089B58F7E89BD41
:100FE00089B5826089BD09B400FEFDCF61E070E083
:100FF00080E090E00E943D028091D8008F7C80616B
:101000008093D8008091E000807F8093E000809101
:10101000E1008E7E8093E1008DE08093E2008FEF0F
:101020009FEF9093B6018093B501EDE7F1E0249135
:10103000EEE5F1E084918823C1F090E0880F991FDC
:10104000FC01E05EFE4FC591D491FC01E85BFE4FD0
:10105000A591B4919FB7F8948881E22FE0958E23F3
:1010600088838C91E823EC939FBFE2E8F1E0249120
:10107000E3E6F1E08491882399F090E0880F991FCE
:10108000FC01E05EFE4FA591B491FC01E85BFE4FD0
:10109000859194918FB7F894EC91E22BEC938FBFEC
:1010A00088E00E94CB018C0182E10E94F401EC01F6
:1010B000012B09F064C089E291E00E94780481E08C
:1010C0000E94A00183E491E00E940604BE01DD0FAE
:1010D000880B990B97FF59C00E94570486E291E054
:1010E0000E94060480E0E82E80E0F82E88E00E944E
:1010F000CB018C0182E10E94F401EC0180910C0192
:101100008017110681F081E00115110509F480E0D6
:1011100080930C01012BE9F589E291E00E947804AB
:1011200081E00E94A0018091900190919101C817E7
:10113000D907C1F08C179D0794F58CE591E00E94CA
:101140000604BE010D2E000C880B990B97FF2AC0D8
:101150000E94570486E291E00E940604D093910118
:10116000C093900164E670E080E090E00E943D0250
:10117000E114F10409F4BACF0E940000B7CF86E36E
:1011800091E00E94780480E09BCF4AE00E94130423
:10119000A5CF86E391E00E94780480E0C2CF82E789
:1011A00091E0CDCF4AE00E941304D4CFE9EAF1E008
:1011B0001382128288EE93E0A0E0B0E084839583EE
:1011C000A683B78381E191E0918380838FEF9FEFC6
:1011D000958784870895A1E21A2EAA1BBB1BFD01E7
:1011E0000DC0AA1FBB1FEE1FFF1FA217B307E40706
:1011F000F50720F0A21BB30BE40BF50B661F771F5E
:10120000881F991F1A9469F760957095809590953D
:101210009B01AC01BD01CF010895EE0FFF1F0590AA
:0A122000F491E02D0994F894FFCF3B
:10122A00FFFFFFFF00E100000000000001000000D6
:10123A0000AB032703CC03C103EC03D003DC030098
:10124A00C180810000000D0A00536F696C20697328
:10125A00207765742100536F696C2069732064726A
:10126A00792E00496E697469616C204D6F697374D7
:10127A00757265204C6576656C3A20004D6F69730E
:10128A007475726520696E6372656173696E673A17
:10129A0020004D6F697374757265206465637265A9
:0812AA006173696E673A2000D0
:00000001FF
